EDI_DC40  5000000000030640467740 3012  Z1BTDOC                                                     ZSC_BTEND                                        SAPMEP    LS  MEPCLNT500                                                                                           I041      US  BARTENDER                                                                                            20190517220733                                                                                                                DCO-030031_IDOCACT_E
Z2BTMH01000                   5000000000030640467000001000000021148              
Z2BTLH01000                   500000000003064046700000200000103LBL005218         
Z2BTTX01000                   500000000003064046700000300000204GRUNE  ENMATERIAL  LBL005218                                                             Dual Channel Airway, ##                                               * 
Z2BTTX01000                   500000000003064046700000400000204GRUNE  ENMATERIAL  LBL005218                                                             100 mm, LARGE ADULT                                                   / 
Z2BTLC01000                   500000000003064046700000500000204STERILITYTYPE                 NO                            T:\MEDICAL\NA\RTP\TEAM CENTER\TEMPLATES\GRAPHICS\BLANK-01.tif                                                                                                                                                                                                   
Z2BTLC01000                   500000000003064046700000600000204TFXLOGO                       Y                             T:\MEDICAL\NA\RTP\TEAM CENTER\TEMPLATES\GRAPHICS\TeleflexMedical.tif                                                                                                                                                                                            
Z2BTLC01000                   500000000003064046700000700000204REVISION                      R01                           R01                                                                                                                                                                                                                                                             
Z2BTLC01000                   500000000003064046700000800000204QUANTITY                      48                            48                                                                                                                                                                                                                                                              
Z2BTLC01000                   500000000003064046700000900000204REF                           N                             T:\MEDICAL\NA\RTP\TEAM CENTER\TEMPLATES\GRAPHICS\BLANK-01.TIF                                                                                                                                                                                                   
Z2BTLC01000                   500000000003064046700001000000204CAUTIONSTATE                  NO                            T:\MEDICAL\NA\RTP\TEAM CENTER\TEMPLATES\GRAPHICS\blank-01.tif                                                                                                                                                                                                   
Z2BTLC01000                   500000000003064046700001100000204LABELGRAPH1                   NOTMADELATEX                  T:\MEDICAL\NA\RTP\TEAM CENTER\TEMPLATES\GRAPHICS\NotMadeLatex.tif                                                                                                                                                                                               
Z2BTLC01000                   500000000003064046700001200000204LABELGRAPH2                   NO                            T:\MEDICAL\NA\RTP\TEAM CENTER\TEMPLATES\GRAPHICS\blank-01.tif                                                                                                                                                                                                   
Z2BTLC01000                   500000000003064046700001300000204KEEPAWAYHEAT                  N                             T:\MEDICAL\NA\RTP\TEAM CENTER\TEMPLATES\GRAPHICS\BLANK-01.TIF                                                                                                                                                                                                   
Z2BTLC01000                   500000000003064046700001400000204PHTDEHP                       N                             T:\MEDICAL\NA\RTP\TEAM CENTER\TEMPLATES\GRAPHICS\BLANK-01.TIF                                                                                                                                                                                                   
Z2BTLC01000                   500000000003064046700001500000204SIZELOGO                      N                             No                                                                                                                                                                                                                                                              
Z2BTLC01000                   500000000003064046700001600000204HIGHLOW                       NO                            T:\MEDICAL\NA\RTP\TEAM CENTER\TEMPLATES\GRAPHICS\blank-01.tif                                                                                                                                                                                                   
Z2BTLC01000                   500000000003064046700001700000204GS1                           NO                            T:\MEDICAL\NA\RTP\TEAM CENTER\TEMPLATES\GRAPHICS\blank-01.tif                                                                                                                                                                                                   
Z2BTLC01000                   500000000003064046700001800000204BARCODE1                      NO                            T:\MEDICAL\NA\RTP\TEAM CENTER\TEMPLATES\GRAPHICS\blank-01.TIF                                                                                                                                                                                                   
Z2BTLC01000                   500000000003064046700001900000204VERSION                       NO                            T:\MEDICAL\NA\RTP\TEAM CENTER\TEMPLATES\GRAPHICS\blank-01.tif                                                                                                                                                                                                   
Z2BTLC01000                   500000000003064046700002000000204DISTRIBUTEDBY                 NO                            T:\MEDICAL\NA\RTP\TEAM CENTER\TEMPLATES\GRAPHICS\blank-01.tif                                                                                                                                                                                                   
Z2BTLC01000                   500000000003064046700002100000204MANUFACTUREDBY                NO                            T:\MEDICAL\NA\RTP\TEAM CENTER\TEMPLATES\GRAPHICS\blank-01.tif                                                                                                                                                                                                   
Z2BTLC01000                   500000000003064046700002200000204LOGO3                         NO                            T:\MEDICAL\NA\RTP\TEAM CENTER\TEMPLATES\GRAPHICS\blank-01.tif                                                                                                                                                                                                   
Z2BTLC01000                   500000000003064046700002300000204LOGO4                         NO                            T:\MEDICAL\NA\RTP\TEAM CENTER\TEMPLATES\GRAPHICS\blank-01.tif                                                                                                                                                                                                   
Z2BTLC01000                   500000000003064046700002400000204LOGO5                         NO                            T:\MEDICAL\NA\RTP\TEAM CENTER\TEMPLATES\GRAPHICS\blank-01.tif                                                                                                                                                                                                   
Z2BTLC01000                   500000000003064046700002500000204LTNUMBER                      IPN041678                     IPN041678                                                                                                                                                                                                                                                       
Z2BTLC01000                   500000000003064046700002600000204LATEXSTATEMENT                NO                            T:\MEDICAL\NA\RTP\TEAM CENTER\TEMPLATES\GRAPHICS\blank-01.tif                                                                                                                                                                                                   
Z2BTLC01000                   500000000003064046700002700000204TEMPLATENUMBER                T001414                       T001414                                                                                                                                                                                                                                                         
Z2BTLC01000                   500000000003064046700002800000204BARCODETEXT                   34026704596844                34026704596844                                                                                                                                                                                                                                                  
Z2BTLC01000                   500000000003064046700002900000204ADDRESS                       TFX4LINEADD3I                 T:\MEDICAL\NA\RTP\TEAM CENTER\TEMPLATES\GRAPHICS\TFX4LineAdd3i.tif                                                                                                                                                                                              
Z2BTLC01000                   500000000003064046700003000000204CE0120                        NO                            T:\MEDICAL\NA\RTP\TEAM CENTER\TEMPLATES\GRAPHICS\blank-01.tif                                                                                                                                                                                                   
Z2BTLC01000                   500000000003064046700003100000204GRAPHIC01                     Y                             T:\MEDICAL\NA\RTP\TEAM CENTER\TEMPLATES\GRAPHICS\ConsultIFU.tif                                                                                                                                                                                                 
Z2BTLC01000                   500000000003064046700003200000204COOSTATE                      COOASSMMEX                    T:\MEDICAL\NA\RTP\TEAM CENTER\TEMPLATES\GRAPHICS\COOAssmMex.tif                                                                                                                                                                                                 
Z2BTLC01000                   500000000003064046700003300000204ECREP                         N                             T:\MEDICAL\NA\RTP\TEAM CENTER\TEMPLATES\GRAPHICS\BLANK-01.TIF                                                                                                                                                                                                   
Z2BTLC01000                   500000000003064046700003400000204ECREPADDRESS                  NO                            T:\MEDICAL\NA\RTP\TEAM CENTER\TEMPLATES\GRAPHICS\blank-01.tif                                                                                                                                                                                                   
Z2BTLC01000                   500000000003064046700003500000204EXPDATE                       N                             T:\MEDICAL\NA\RTP\TEAM CENTER\TEMPLATES\GRAPHICS\BLANK-01.TIF                                                                                                                                                                                                   
Z2BTLC01000                   500000000003064046700003600000204LEVEL                         SALESUNIT                     Sales Unit                                                                                                                                                                                                                                                      
Z2BTLC01000                   500000000003064046700003700000204LOGO1                         HUDSONRCI                     T:\MEDICAL\NA\RTP\TEAM CENTER\TEMPLATES\GRAPHICS\HUDSONRCI.tif                                                                                                                                                                                                  
Z2BTLC01000                   500000000003064046700003800000204LOGO2                         NO                            T:\MEDICAL\NA\RTP\TEAM CENTER\TEMPLATES\GRAPHICS\blank-01.tif                                                                                                                                                                                                   
Z2BTLC01000                   500000000003064046700003900000204LOTGRAPHIC                    Y                             T:\MEDICAL\NA\RTP\TEAM CENTER\TEMPLATES\GRAPHICS\Lot.tif                                                                                                                                                                                                        
Z2BTLC01000                   500000000003064046700004000000204STERILESTA                    NO                            T:\MEDICAL\NA\RTP\TEAM CENTER\TEMPLATES\GRAPHICS\blank-01.tif                                                                                                                                                                                                   
Z2BTLC01000                   500000000003064046700004100000204SIZE                          D103                          5" X 3"                                                                                                                                                                                                                                                         
Z2BTLC01000                   500000000003064046700004200000204GRAPHIC02                     Y                             T:\MEDICAL\NA\RTP\TEAM CENTER\TEMPLATES\GRAPHICS\singleuse.tif                                                                                                                                                                                                  
Z2BTLC01000                   500000000003064046700004300000204SERIAL                        N                             T:\MEDICAL\NA\RTP\TEAM CENTER\TEMPLATES\GRAPHICS\BLANK-01.TIF                                                                                                                                                                                                   
Z2BTLC01000                   500000000003064046700004400000204RXONLY                        Y                             T:\MEDICAL\NA\RTP\TEAM CENTER\TEMPLATES\GRAPHICS\RX Only.tif                                                                                                                                                                                                    
Z2BTLC01000                   500000000003064046700004500000204REFNUMBER                     Y                             T:\MEDICAL\NA\RTP\TEAM CENTER\TEMPLATES\GRAPHICS\REF.tif                                                                                                                                                                                                        
Z2BTLC01000                   500000000003064046700004600000204PATENTSTA                     NO                            T:\MEDICAL\NA\RTP\TEAM CENTER\TEMPLATES\GRAPHICS\blank-01.tif                                                                                                                                                                                                   
Z2BTLC01000                   500000000003064046700004700000204GRAPHIC03                     Y                             T:\MEDICAL\NA\RTP\TEAM CENTER\TEMPLATES\GRAPHICS\Non-sterile.tif                                                                                                                                                                                                
Z2BTLC01000                   500000000003064046700004800000204MFGDATE                       Y                             T:\MEDICAL\NA\RTP\TEAM CENTER\TEMPLATES\GRAPHICS\DateofManufacture.tif                                                                                                                                                                                          
Z2BTLC01000                   500000000003064046700004900000204MANUFACTURER                  Y                             T:\MEDICAL\NA\RTP\TEAM CENTER\TEMPLATES\GRAPHICS\Manufacturer.tif                                                                                                                                                                                               
Z2BTMH01000                   5000000000030640467000050000000021149              
Z2BTLH01000                   500000000003064046700005100005003LBL005219         
Z2BTTX01000                   500000000003064046700005200005104GRUNE  ENMATERIAL  LBL005219                                                             Dual Channel Airway, ##                                               * 
Z2BTTX01000                   500000000003064046700005300005104GRUNE  ENMATERIAL  LBL005219                                                             90 mm, MEDIUM ADULT                                                   / 
Z2BTLC01000                   500000000003064046700005400005104STERILITYTYPE                 NO                            T:\MEDICAL\NA\RTP\TEAM CENTER\TEMPLATES\GRAPHICS\BLANK-01.tif                                                                                                                                                                                                   
Z2BTLC01000                   500000000003064046700005500005104TFXLOGO                       Y                             T:\MEDICAL\NA\RTP\TEAM CENTER\TEMPLATES\GRAPHICS\TeleflexMedical.tif                                                                                                                                                                                            
Z2BTLC01000                   500000000003064046700005600005104REVISION                      R01                           R01                                                                                                                                                                                                                                                             
Z2BTLC01000                   500000000003064046700005700005104QUANTITY                      48                            48                                                                                                                                                                                                                                                              
Z2BTLC01000                   500000000003064046700005800005104REF                           N                             T:\MEDICAL\NA\RTP\TEAM CENTER\TEMPLATES\GRAPHICS\BLANK-01.TIF                                                                                                                                                                                                   
Z2BTLC01000                   500000000003064046700005900005104CAUTIONSTATE                  NO                            T:\MEDICAL\NA\RTP\TEAM CENTER\TEMPLATES\GRAPHICS\blank-01.tif                                                                                                                                                                                                   
Z2BTLC01000                   500000000003064046700006000005104LABELGRAPH1                   NOTMADELATEX                  T:\MEDICAL\NA\RTP\TEAM CENTER\TEMPLATES\GRAPHICS\NotMadeLatex.tif                                                                                                                                                                                               
Z2BTLC01000                   500000000003064046700006100005104LABELGRAPH2                   NO                            T:\MEDICAL\NA\RTP\TEAM CENTER\TEMPLATES\GRAPHICS\blank-01.tif                                                                                                                                                                                                   
Z2BTLC01000                   500000000003064046700006200005104KEEPAWAYHEAT                  N                             T:\MEDICAL\NA\RTP\TEAM CENTER\TEMPLATES\GRAPHICS\BLANK-01.TIF                                                                                                                                                                                                   
Z2BTLC01000                   500000000003064046700006300005104PHTDEHP                       N                             T:\MEDICAL\NA\RTP\TEAM CENTER\TEMPLATES\GRAPHICS\BLANK-01.TIF                                                                                                                                                                                                   
Z2BTLC01000                   500000000003064046700006400005104SIZELOGO                      N                             No                                                                                                                                                                                                                                                              
Z2BTLC01000                   500000000003064046700006500005104HIGHLOW                       NO                            T:\MEDICAL\NA\RTP\TEAM CENTER\TEMPLATES\GRAPHICS\blank-01.tif                                                                                                                                                                                                   
Z2BTLC01000                   500000000003064046700006600005104GS1                           NO                            T:\MEDICAL\NA\RTP\TEAM CENTER\TEMPLATES\GRAPHICS\blank-01.tif                                                                                                                                                                                                   
Z2BTLC01000                   500000000003064046700006700005104BARCODE1                      NO                            T:\MEDICAL\NA\RTP\TEAM CENTER\TEMPLATES\GRAPHICS\blank-01.TIF                                                                                                                                                                                                   
Z2BTLC01000                   500000000003064046700006800005104VERSION                       NO                            T:\MEDICAL\NA\RTP\TEAM CENTER\TEMPLATES\GRAPHICS\blank-01.tif                                                                                                                                                                                                   
Z2BTLC01000                   500000000003064046700006900005104DISTRIBUTEDBY                 NO                            T:\MEDICAL\NA\RTP\TEAM CENTER\TEMPLATES\GRAPHICS\blank-01.tif                                                                                                                                                                                                   
Z2BTLC01000                   500000000003064046700007000005104MANUFACTUREDBY                NO                            T:\MEDICAL\NA\RTP\TEAM CENTER\TEMPLATES\GRAPHICS\blank-01.tif                                                                                                                                                                                                   
Z2BTLC01000                   500000000003064046700007100005104LOGO3                         NO                            T:\MEDICAL\NA\RTP\TEAM CENTER\TEMPLATES\GRAPHICS\blank-01.tif                                                                                                                                                                                                   
Z2BTLC01000                   500000000003064046700007200005104LOGO4                         NO                            T:\MEDICAL\NA\RTP\TEAM CENTER\TEMPLATES\GRAPHICS\blank-01.tif                                                                                                                                                                                                   
Z2BTLC01000                   500000000003064046700007300005104LOGO5                         NO                            T:\MEDICAL\NA\RTP\TEAM CENTER\TEMPLATES\GRAPHICS\blank-01.tif                                                                                                                                                                                                   
Z2BTLC01000                   500000000003064046700007400005104LTNUMBER                      IPN041679                     IPN041679                                                                                                                                                                                                                                                       
Z2BTLC01000                   500000000003064046700007500005104LATEXSTATEMENT                NO                            T:\MEDICAL\NA\RTP\TEAM CENTER\TEMPLATES\GRAPHICS\blank-01.tif                                                                                                                                                                                                   
Z2BTLC01000                   500000000003064046700007600005104TEMPLATENUMBER                T001414                       T001414                                                                                                                                                                                                                                                         
Z2BTLC01000                   500000000003064046700007700005104BARCODETEXT                   34026704580140                34026704580140                                                                                                                                                                                                                                                  
Z2BTLC01000                   500000000003064046700007800005104ADDRESS                       TFX4LINEADD3I                 T:\MEDICAL\NA\RTP\TEAM CENTER\TEMPLATES\GRAPHICS\TFX4LineAdd3i.tif                                                                                                                                                                                              
Z2BTLC01000                   500000000003064046700007900005104CE0120                        NO                            T:\MEDICAL\NA\RTP\TEAM CENTER\TEMPLATES\GRAPHICS\blank-01.tif                                                                                                                                                                                                   
Z2BTLC01000                   500000000003064046700008000005104GRAPHIC01                     Y                             T:\MEDICAL\NA\RTP\TEAM CENTER\TEMPLATES\GRAPHICS\ConsultIFU.tif                                                                                                                                                                                                 
Z2BTLC01000                   500000000003064046700008100005104COOSTATE                      COOASSMMEX                    T:\MEDICAL\NA\RTP\TEAM CENTER\TEMPLATES\GRAPHICS\COOAssmMex.tif                                                                                                                                                                                                 
Z2BTLC01000                   500000000003064046700008200005104ECREP                         N                             T:\MEDICAL\NA\RTP\TEAM CENTER\TEMPLATES\GRAPHICS\BLANK-01.TIF                                                                                                                                                                                                   
Z2BTLC01000                   500000000003064046700008300005104ECREPADDRESS                  NO                            T:\MEDICAL\NA\RTP\TEAM CENTER\TEMPLATES\GRAPHICS\blank-01.tif                                                                                                                                                                                                   
Z2BTLC01000                   500000000003064046700008400005104EXPDATE                       N                             T:\MEDICAL\NA\RTP\TEAM CENTER\TEMPLATES\GRAPHICS\BLANK-01.TIF                                                                                                                                                                                                   
Z2BTLC01000                   500000000003064046700008500005104LEVEL                         SALESUNIT                     Sales Unit                                                                                                                                                                                                                                                      
Z2BTLC01000                   500000000003064046700008600005104LOGO1                         HUDSONRCI                     T:\MEDICAL\NA\RTP\TEAM CENTER\TEMPLATES\GRAPHICS\HUDSONRCI.tif                                                                                                                                                                                                  
Z2BTLC01000                   500000000003064046700008700005104LOGO2                         NO                            T:\MEDICAL\NA\RTP\TEAM CENTER\TEMPLATES\GRAPHICS\blank-01.tif                                                                                                                                                                                                   
Z2BTLC01000                   500000000003064046700008800005104LOTGRAPHIC                    Y                             T:\MEDICAL\NA\RTP\TEAM CENTER\TEMPLATES\GRAPHICS\Lot.tif                                                                                                                                                                                                        
Z2BTLC01000                   500000000003064046700008900005104STERILESTA                    NO                            T:\MEDICAL\NA\RTP\TEAM CENTER\TEMPLATES\GRAPHICS\blank-01.tif                                                                                                                                                                                                   
Z2BTLC01000                   500000000003064046700009000005104SIZE                          D103                          5" X 3"                                                                                                                                                                                                                                                         
Z2BTLC01000                   500000000003064046700009100005104GRAPHIC02                     Y                             T:\MEDICAL\NA\RTP\TEAM CENTER\TEMPLATES\GRAPHICS\singleuse.tif                                                                                                                                                                                                  
Z2BTLC01000                   500000000003064046700009200005104SERIAL                        N                             T:\MEDICAL\NA\RTP\TEAM CENTER\TEMPLATES\GRAPHICS\BLANK-01.TIF                                                                                                                                                                                                   
Z2BTLC01000                   500000000003064046700009300005104RXONLY                        Y                             T:\MEDICAL\NA\RTP\TEAM CENTER\TEMPLATES\GRAPHICS\RX Only.tif                                                                                                                                                                                                    
Z2BTLC01000                   500000000003064046700009400005104REFNUMBER                     Y                             T:\MEDICAL\NA\RTP\TEAM CENTER\TEMPLATES\GRAPHICS\REF.tif                                                                                                                                                                                                        
Z2BTLC01000                   500000000003064046700009500005104MANUFACTURER                  Y                             T:\MEDICAL\NA\RTP\TEAM CENTER\TEMPLATES\GRAPHICS\Manufacturer.tif                                                                                                                                                                                               
Z2BTLC01000                   500000000003064046700009600005104MFGDATE                       Y                             T:\MEDICAL\NA\RTP\TEAM CENTER\TEMPLATES\GRAPHICS\DateofManufacture.tif                                                                                                                                                                                          
Z2BTLC01000                   500000000003064046700009700005104GRAPHIC03                     Y                             T:\MEDICAL\NA\RTP\TEAM CENTER\TEMPLATES\GRAPHICS\Non-sterile.tif                                                                                                                                                                                                
Z2BTLC01000                   500000000003064046700009800005104PATENTSTA                     NO                            T:\MEDICAL\NA\RTP\TEAM CENTER\TEMPLATES\GRAPHICS\blank-01.tif                                                                                                                                                                                                   
Z2BTMH01000                   5000000000030640467000099000000021150              
Z2BTLH01000                   500000000003064046700010000009903LBL005220         
Z2BTTX01000                   500000000003064046700010100010004GRUNE  ENMATERIAL  LBL005220                                                             Dual Channel Airway, ##                                               * 
Z2BTTX01000                   500000000003064046700010200010004GRUNE  ENMATERIAL  LBL005220                                                             80 mm, SMALL ADULT                                                    / 
Z2BTLC01000                   500000000003064046700010300010004KEEPAWAYHEAT                  N                             T:\MEDICAL\NA\RTP\TEAM CENTER\TEMPLATES\GRAPHICS\BLANK-01.TIF                                                                                                                                                                                                   
Z2BTLC01000                   500000000003064046700010400010004LABELGRAPH2                   NO                            T:\MEDICAL\NA\RTP\TEAM CENTER\TEMPLATES\GRAPHICS\blank-01.tif                                                                                                                                                                                                   
Z2BTLC01000                   500000000003064046700010500010004PHTDEHP                       N                             T:\MEDICAL\NA\RTP\TEAM CENTER\TEMPLATES\GRAPHICS\BLANK-01.TIF                                                                                                                                                                                                   
Z2BTLC01000                   500000000003064046700010600010004SIZELOGO                      N                             No                                                                                                                                                                                                                                                              
Z2BTLC01000                   500000000003064046700010700010004HIGHLOW                       NO                            T:\MEDICAL\NA\RTP\TEAM CENTER\TEMPLATES\GRAPHICS\blank-01.tif                                                                                                                                                                                                   
Z2BTLC01000                   500000000003064046700010800010004LABELGRAPH1                   NOTMADELATEX                  T:\MEDICAL\NA\RTP\TEAM CENTER\TEMPLATES\GRAPHICS\NotMadeLatex.tif                                                                                                                                                                                               
Z2BTLC01000                   500000000003064046700010900010004CAUTIONSTATE                  NO                            T:\MEDICAL\NA\RTP\TEAM CENTER\TEMPLATES\GRAPHICS\blank-01.tif                                                                                                                                                                                                   
Z2BTLC01000                   500000000003064046700011000010004REF                           N                             T:\MEDICAL\NA\RTP\TEAM CENTER\TEMPLATES\GRAPHICS\BLANK-01.TIF                                                                                                                                                                                                   
Z2BTLC01000                   500000000003064046700011100010004QUANTITY                      48                            48                                                                                                                                                                                                                                                              
Z2BTLC01000                   500000000003064046700011200010004REVISION                      R01                           R01                                                                                                                                                                                                                                                             
Z2BTLC01000                   500000000003064046700011300010004TFXLOGO                       Y                             T:\MEDICAL\NA\RTP\TEAM CENTER\TEMPLATES\GRAPHICS\TeleflexMedical.tif                                                                                                                                                                                            
Z2BTLC01000                   500000000003064046700011400010004STERILITYTYPE                 NO                            T:\MEDICAL\NA\RTP\TEAM CENTER\TEMPLATES\GRAPHICS\BLANK-01.tif                                                                                                                                                                                                   
Z2BTLC01000                   500000000003064046700011500010004GS1                           NO                            T:\MEDICAL\NA\RTP\TEAM CENTER\TEMPLATES\GRAPHICS\blank-01.tif                                                                                                                                                                                                   
Z2BTLC01000                   500000000003064046700011600010004BARCODE1                      NO                            T:\MEDICAL\NA\RTP\TEAM CENTER\TEMPLATES\GRAPHICS\blank-01.TIF                                                                                                                                                                                                   
Z2BTLC01000                   500000000003064046700011700010004VERSION                       NO                            T:\MEDICAL\NA\RTP\TEAM CENTER\TEMPLATES\GRAPHICS\blank-01.tif                                                                                                                                                                                                   
Z2BTLC01000                   500000000003064046700011800010004DISTRIBUTEDBY                 NO                            T:\MEDICAL\NA\RTP\TEAM CENTER\TEMPLATES\GRAPHICS\blank-01.tif                                                                                                                                                                                                   
Z2BTLC01000                   500000000003064046700011900010004MANUFACTUREDBY                NO                            T:\MEDICAL\NA\RTP\TEAM CENTER\TEMPLATES\GRAPHICS\blank-01.tif                                                                                                                                                                                                   
Z2BTLC01000                   500000000003064046700012000010004LOGO3                         NO                            T:\MEDICAL\NA\RTP\TEAM CENTER\TEMPLATES\GRAPHICS\blank-01.tif                                                                                                                                                                                                   
Z2BTLC01000                   500000000003064046700012100010004LOGO4                         NO                            T:\MEDICAL\NA\RTP\TEAM CENTER\TEMPLATES\GRAPHICS\blank-01.tif                                                                                                                                                                                                   
Z2BTLC01000                   500000000003064046700012200010004LOGO5                         NO                            T:\MEDICAL\NA\RTP\TEAM CENTER\TEMPLATES\GRAPHICS\blank-01.tif                                                                                                                                                                                                   
Z2BTLC01000                   500000000003064046700012300010004LTNUMBER                      IPN041680                     IPN041680                                                                                                                                                                                                                                                       
Z2BTLC01000                   500000000003064046700012400010004LATEXSTATEMENT                NO                            T:\MEDICAL\NA\RTP\TEAM CENTER\TEMPLATES\GRAPHICS\blank-01.tif                                                                                                                                                                                                   
Z2BTLC01000                   500000000003064046700012500010004TEMPLATENUMBER                T001414                       T001414                                                                                                                                                                                                                                                         
Z2BTLC01000                   500000000003064046700012600010004BARCODETEXT                   34026704580157                34026704580157                                                                                                                                                                                                                                                  
Z2BTLC01000                   500000000003064046700012700010004ADDRESS                       TFX4LINEADD3I                 T:\MEDICAL\NA\RTP\TEAM CENTER\TEMPLATES\GRAPHICS\TFX4LineAdd3i.tif                                                                                                                                                                                              
Z2BTLC01000                   500000000003064046700012800010004CE0120                        NO                            T:\MEDICAL\NA\RTP\TEAM CENTER\TEMPLATES\GRAPHICS\blank-01.tif                                                                                                                                                                                                   
Z2BTLC01000                   500000000003064046700012900010004GRAPHIC01                     Y                             T:\MEDICAL\NA\RTP\TEAM CENTER\TEMPLATES\GRAPHICS\ConsultIFU.tif                                                                                                                                                                                                 
Z2BTLC01000                   500000000003064046700013000010004COOSTATE                      COOASSMMEX                    T:\MEDICAL\NA\RTP\TEAM CENTER\TEMPLATES\GRAPHICS\COOAssmMex.tif                                                                                                                                                                                                 
Z2BTLC01000                   500000000003064046700013100010004ECREP                         N                             T:\MEDICAL\NA\RTP\TEAM CENTER\TEMPLATES\GRAPHICS\BLANK-01.TIF                                                                                                                                                                                                   
Z2BTLC01000                   500000000003064046700013200010004ECREPADDRESS                  NO                            T:\MEDICAL\NA\RTP\TEAM CENTER\TEMPLATES\GRAPHICS\blank-01.tif                                                                                                                                                                                                   
Z2BTLC01000                   500000000003064046700013300010004EXPDATE                       N                             T:\MEDICAL\NA\RTP\TEAM CENTER\TEMPLATES\GRAPHICS\BLANK-01.TIF                                                                                                                                                                                                   
Z2BTLC01000                   500000000003064046700013400010004LEVEL                         SALESUNIT                     Sales Unit                                                                                                                                                                                                                                                      
Z2BTLC01000                   500000000003064046700013500010004LOGO1                         HUDSONRCI                     T:\MEDICAL\NA\RTP\TEAM CENTER\TEMPLATES\GRAPHICS\HUDSONRCI.tif                                                                                                                                                                                                  
Z2BTLC01000                   500000000003064046700013600010004LOGO2                         NO                            T:\MEDICAL\NA\RTP\TEAM CENTER\TEMPLATES\GRAPHICS\blank-01.tif                                                                                                                                                                                                   
Z2BTLC01000                   500000000003064046700013700010004LOTGRAPHIC                    Y                             T:\MEDICAL\NA\RTP\TEAM CENTER\TEMPLATES\GRAPHICS\Lot.tif                                                                                                                                                                                                        
Z2BTLC01000                   500000000003064046700013800010004STERILESTA                    NO                            T:\MEDICAL\NA\RTP\TEAM CENTER\TEMPLATES\GRAPHICS\blank-01.tif                                                                                                                                                                                                   
Z2BTLC01000                   500000000003064046700013900010004SIZE                          D103                          5" X 3"                                                                                                                                                                                                                                                         
Z2BTLC01000                   500000000003064046700014000010004GRAPHIC02                     Y                             T:\MEDICAL\NA\RTP\TEAM CENTER\TEMPLATES\GRAPHICS\singleuse.tif                                                                                                                                                                                                  
Z2BTLC01000                   500000000003064046700014100010004SERIAL                        N                             T:\MEDICAL\NA\RTP\TEAM CENTER\TEMPLATES\GRAPHICS\BLANK-01.TIF                                                                                                                                                                                                   
Z2BTLC01000                   500000000003064046700014200010004RXONLY                        Y                             T:\MEDICAL\NA\RTP\TEAM CENTER\TEMPLATES\GRAPHICS\RX Only.tif                                                                                                                                                                                                    
Z2BTLC01000                   500000000003064046700014300010004REFNUMBER                     Y                             T:\MEDICAL\NA\RTP\TEAM CENTER\TEMPLATES\GRAPHICS\REF.tif                                                                                                                                                                                                        
Z2BTLC01000                   500000000003064046700014400010004PATENTSTA                     NO                            T:\MEDICAL\NA\RTP\TEAM CENTER\TEMPLATES\GRAPHICS\blank-01.tif                                                                                                                                                                                                   
Z2BTLC01000                   500000000003064046700014500010004GRAPHIC03                     Y                             T:\MEDICAL\NA\RTP\TEAM CENTER\TEMPLATES\GRAPHICS\Non-sterile.tif                                                                                                                                                                                                
Z2BTLC01000                   500000000003064046700014600010004MFGDATE                       Y                             T:\MEDICAL\NA\RTP\TEAM CENTER\TEMPLATES\GRAPHICS\DateofManufacture.tif                                                                                                                                                                                          
Z2BTLC01000                   500000000003064046700014700010004MANUFACTURER                  Y                             T:\MEDICAL\NA\RTP\TEAM CENTER\TEMPLATES\GRAPHICS\Manufacturer.tif                                                                                                                                                                                               
Z2BTMH01000                   5000000000030640467000148000000021151              
Z2BTLH01000                   500000000003064046700014900014803LBL005221         
Z2BTTX01000                   500000000003064046700015000014904GRUNE  ENMATERIAL  LBL005221                                                             Dual Channel Airway, ##                                               * 
Z2BTTX01000                   500000000003064046700015100014904GRUNE  ENMATERIAL  LBL005221                                                             60 mm, CHILD                                                          / 
Z2BTLC01000                   500000000003064046700015200014904STERILITYTYPE                 NO                            T:\MEDICAL\NA\RTP\TEAM CENTER\TEMPLATES\GRAPHICS\BLANK-01.tif                                                                                                                                                                                                   
Z2BTLC01000                   500000000003064046700015300014904TFXLOGO                       Y                             T:\MEDICAL\NA\RTP\TEAM CENTER\TEMPLATES\GRAPHICS\TeleflexMedical.tif                                                                                                                                                                                            
Z2BTLC01000                   500000000003064046700015400014904REVISION                      R01                           R01                                                                                                                                                                                                                                                             
Z2BTLC01000                   500000000003064046700015500014904QUANTITY                      48                            48                                                                                                                                                                                                                                                              
Z2BTLC01000                   500000000003064046700015600014904REF                           N                             T:\MEDICAL\NA\RTP\TEAM CENTER\TEMPLATES\GRAPHICS\BLANK-01.TIF                                                                                                                                                                                                   
Z2BTLC01000                   500000000003064046700015700014904CAUTIONSTATE                  NO                            T:\MEDICAL\NA\RTP\TEAM CENTER\TEMPLATES\GRAPHICS\blank-01.tif                                                                                                                                                                                                   
Z2BTLC01000                   500000000003064046700015800014904LABELGRAPH1                   NOTMADELATEX                  T:\MEDICAL\NA\RTP\TEAM CENTER\TEMPLATES\GRAPHICS\NotMadeLatex.tif                                                                                                                                                                                               
Z2BTLC01000                   500000000003064046700015900014904LABELGRAPH2                   NO                            T:\MEDICAL\NA\RTP\TEAM CENTER\TEMPLATES\GRAPHICS\blank-01.tif                                                                                                                                                                                                   
Z2BTLC01000                   500000000003064046700016000014904KEEPAWAYHEAT                  N                             T:\MEDICAL\NA\RTP\TEAM CENTER\TEMPLATES\GRAPHICS\BLANK-01.TIF                                                                                                                                                                                                   
Z2BTLC01000                   500000000003064046700016100014904PHTDEHP                       N                             T:\MEDICAL\NA\RTP\TEAM CENTER\TEMPLATES\GRAPHICS\BLANK-01.TIF                                                                                                                                                                                                   
Z2BTLC01000                   500000000003064046700016200014904SIZELOGO                      N                             No                                                                                                                                                                                                                                                              
Z2BTLC01000                   500000000003064046700016300014904HIGHLOW                       NO                            T:\MEDICAL\NA\RTP\TEAM CENTER\TEMPLATES\GRAPHICS\blank-01.tif                                                                                                                                                                                                   
Z2BTLC01000                   500000000003064046700016400014904GS1                           NO                            T:\MEDICAL\NA\RTP\TEAM CENTER\TEMPLATES\GRAPHICS\blank-01.tif                                                                                                                                                                                                   
Z2BTLC01000                   500000000003064046700016500014904BARCODE1                      NO                            T:\MEDICAL\NA\RTP\TEAM CENTER\TEMPLATES\GRAPHICS\blank-01.TIF                                                                                                                                                                                                   
Z2BTLC01000                   500000000003064046700016600014904VERSION                       NO                            T:\MEDICAL\NA\RTP\TEAM CENTER\TEMPLATES\GRAPHICS\blank-01.tif                                                                                                                                                                                                   
Z2BTLC01000                   500000000003064046700016700014904DISTRIBUTEDBY                 NO                            T:\MEDICAL\NA\RTP\TEAM CENTER\TEMPLATES\GRAPHICS\blank-01.tif                                                                                                                                                                                                   
Z2BTLC01000                   500000000003064046700016800014904MANUFACTUREDBY                NO                            T:\MEDICAL\NA\RTP\TEAM CENTER\TEMPLATES\GRAPHICS\blank-01.tif                                                                                                                                                                                                   
Z2BTLC01000                   500000000003064046700016900014904LOGO3                         NO                            T:\MEDICAL\NA\RTP\TEAM CENTER\TEMPLATES\GRAPHICS\blank-01.tif                                                                                                                                                                                                   
Z2BTLC01000                   500000000003064046700017000014904LOGO4                         NO                            T:\MEDICAL\NA\RTP\TEAM CENTER\TEMPLATES\GRAPHICS\blank-01.tif                                                                                                                                                                                                   
Z2BTLC01000                   500000000003064046700017100014904LOGO5                         NO                            T:\MEDICAL\NA\RTP\TEAM CENTER\TEMPLATES\GRAPHICS\blank-01.tif                                                                                                                                                                                                   
Z2BTLC01000                   500000000003064046700017200014904LTNUMBER                      IPN041681                     IPN041681                                                                                                                                                                                                                                                       
Z2BTLC01000                   500000000003064046700017300014904LATEXSTATEMENT                NO                            T:\MEDICAL\NA\RTP\TEAM CENTER\TEMPLATES\GRAPHICS\blank-01.tif                                                                                                                                                                                                   
Z2BTLC01000                   500000000003064046700017400014904TEMPLATENUMBER                T001414                       T001414                                                                                                                                                                                                                                                         
Z2BTLC01000                   500000000003064046700017500014904BARCODETEXT                   34026704580164                34026704580164                                                                                                                                                                                                                                                  
Z2BTLC01000                   500000000003064046700017600014904ADDRESS                       TFX4LINEADD3I                 T:\MEDICAL\NA\RTP\TEAM CENTER\TEMPLATES\GRAPHICS\TFX4LineAdd3i.tif                                                                                                                                                                                              
Z2BTLC01000                   500000000003064046700017700014904CE0120                        NO                            T:\MEDICAL\NA\RTP\TEAM CENTER\TEMPLATES\GRAPHICS\blank-01.tif                                                                                                                                                                                                   
Z2BTLC01000                   500000000003064046700017800014904GRAPHIC01                     Y                             T:\MEDICAL\NA\RTP\TEAM CENTER\TEMPLATES\GRAPHICS\ConsultIFU.tif                                                                                                                                                                                                 
Z2BTLC01000                   500000000003064046700017900014904COOSTATE                      COOASSMMEX                    T:\MEDICAL\NA\RTP\TEAM CENTER\TEMPLATES\GRAPHICS\COOAssmMex.tif                                                                                                                                                                                                 
Z2BTLC01000                   500000000003064046700018000014904ECREP                         N                             T:\MEDICAL\NA\RTP\TEAM CENTER\TEMPLATES\GRAPHICS\BLANK-01.TIF                                                                                                                                                                                                   
Z2BTLC01000                   500000000003064046700018100014904ECREPADDRESS                  NO                            T:\MEDICAL\NA\RTP\TEAM CENTER\TEMPLATES\GRAPHICS\blank-01.tif                                                                                                                                                                                                   
Z2BTLC01000                   500000000003064046700018200014904EXPDATE                       N                             T:\MEDICAL\NA\RTP\TEAM CENTER\TEMPLATES\GRAPHICS\BLANK-01.TIF                                                                                                                                                                                                   
Z2BTLC01000                   500000000003064046700018300014904LEVEL                         SALESUNIT                     Sales Unit                                                                                                                                                                                                                                                      
Z2BTLC01000                   500000000003064046700018400014904LOGO1                         HUDSONRCI                     T:\MEDICAL\NA\RTP\TEAM CENTER\TEMPLATES\GRAPHICS\HUDSONRCI.tif                                                                                                                                                                                                  
Z2BTLC01000                   500000000003064046700018500014904LOGO2                         NO                            T:\MEDICAL\NA\RTP\TEAM CENTER\TEMPLATES\GRAPHICS\blank-01.tif                                                                                                                                                                                                   
Z2BTLC01000                   500000000003064046700018600014904LOTGRAPHIC                    Y                             T:\MEDICAL\NA\RTP\TEAM CENTER\TEMPLATES\GRAPHICS\Lot.tif                                                                                                                                                                                                        
Z2BTLC01000                   500000000003064046700018700014904STERILESTA                    NO                            T:\MEDICAL\NA\RTP\TEAM CENTER\TEMPLATES\GRAPHICS\blank-01.tif                                                                                                                                                                                                   
Z2BTLC01000                   500000000003064046700018800014904SIZE                          D103                          5" X 3"                                                                                                                                                                                                                                                         
Z2BTLC01000                   500000000003064046700018900014904GRAPHIC02                     Y                             T:\MEDICAL\NA\RTP\TEAM CENTER\TEMPLATES\GRAPHICS\singleuse.tif                                                                                                                                                                                                  
Z2BTLC01000                   500000000003064046700019000014904SERIAL                        N                             T:\MEDICAL\NA\RTP\TEAM CENTER\TEMPLATES\GRAPHICS\BLANK-01.TIF                                                                                                                                                                                                   
Z2BTLC01000                   500000000003064046700019100014904RXONLY                        Y                             T:\MEDICAL\NA\RTP\TEAM CENTER\TEMPLATES\GRAPHICS\RX Only.tif                                                                                                                                                                                                    
Z2BTLC01000                   500000000003064046700019200014904REFNUMBER                     Y                             T:\MEDICAL\NA\RTP\TEAM CENTER\TEMPLATES\GRAPHICS\REF.tif                                                                                                                                                                                                        
Z2BTLC01000                   500000000003064046700019300014904PATENTSTA                     NO                            T:\MEDICAL\NA\RTP\TEAM CENTER\TEMPLATES\GRAPHICS\blank-01.tif                                                                                                                                                                                                   
Z2BTLC01000                   500000000003064046700019400014904GRAPHIC03                     Y                             T:\MEDICAL\NA\RTP\TEAM CENTER\TEMPLATES\GRAPHICS\Non-sterile.tif                                                                                                                                                                                                
Z2BTLC01000                   500000000003064046700019500014904MFGDATE                       Y                             T:\MEDICAL\NA\RTP\TEAM CENTER\TEMPLATES\GRAPHICS\DateofManufacture.tif                                                                                                                                                                                          
Z2BTLC01000                   500000000003064046700019600014904MANUFACTURER                  Y                             T:\MEDICAL\NA\RTP\TEAM CENTER\TEMPLATES\GRAPHICS\Manufacturer.tif                                                                                                                                                                                               
Z2BTMH01000                   5000000000030640467000197000000021152              
Z2BTLH01000                   500000000003064046700019800019703LBL005222         
Z2BTTX01000                   500000000003064046700019900019804GRUNE  ENMATERIAL  LBL005222                                                             Dual Channel Airway, ##                                               * 
Z2BTTX01000                   500000000003064046700020000019804GRUNE  ENMATERIAL  LBL005222                                                             40 mm, INFANT                                                         / 
Z2BTLC01000                   500000000003064046700020100019804STERILITYTYPE                 NO                            T:\MEDICAL\NA\RTP\TEAM CENTER\TEMPLATES\GRAPHICS\BLANK-01.tif                                                                                                                                                                                                   
Z2BTLC01000                   500000000003064046700020200019804TFXLOGO                       Y                             T:\MEDICAL\NA\RTP\TEAM CENTER\TEMPLATES\GRAPHICS\TeleflexMedical.tif                                                                                                                                                                                            
Z2BTLC01000                   500000000003064046700020300019804REVISION                      R01                           R01                                                                                                                                                                                                                                                             
Z2BTLC01000                   500000000003064046700020400019804QUANTITY                      48                            48                                                                                                                                                                                                                                                              
Z2BTLC01000                   500000000003064046700020500019804REF                           N                             T:\MEDICAL\NA\RTP\TEAM CENTER\TEMPLATES\GRAPHICS\BLANK-01.TIF                                                                                                                                                                                                   
Z2BTLC01000                   500000000003064046700020600019804CAUTIONSTATE                  NO                            T:\MEDICAL\NA\RTP\TEAM CENTER\TEMPLATES\GRAPHICS\blank-01.tif                                                                                                                                                                                                   
Z2BTLC01000                   500000000003064046700020700019804LABELGRAPH1                   NOTMADELATEX                  T:\MEDICAL\NA\RTP\TEAM CENTER\TEMPLATES\GRAPHICS\NotMadeLatex.tif                                                                                                                                                                                               
Z2BTLC01000                   500000000003064046700020800019804LABELGRAPH2                   NO                            T:\MEDICAL\NA\RTP\TEAM CENTER\TEMPLATES\GRAPHICS\blank-01.tif                                                                                                                                                                                                   
Z2BTLC01000                   500000000003064046700020900019804KEEPAWAYHEAT                  N                             T:\MEDICAL\NA\RTP\TEAM CENTER\TEMPLATES\GRAPHICS\BLANK-01.TIF                                                                                                                                                                                                   
Z2BTLC01000                   500000000003064046700021000019804PHTDEHP                       N                             T:\MEDICAL\NA\RTP\TEAM CENTER\TEMPLATES\GRAPHICS\BLANK-01.TIF                                                                                                                                                                                                   
Z2BTLC01000                   500000000003064046700021100019804SIZELOGO                      N                             No                                                                                                                                                                                                                                                              
Z2BTLC01000                   500000000003064046700021200019804HIGHLOW                       NO                            T:\MEDICAL\NA\RTP\TEAM CENTER\TEMPLATES\GRAPHICS\blank-01.tif                                                                                                                                                                                                   
Z2BTLC01000                   500000000003064046700021300019804GS1                           NO                            T:\MEDICAL\NA\RTP\TEAM CENTER\TEMPLATES\GRAPHICS\blank-01.tif                                                                                                                                                                                                   
Z2BTLC01000                   500000000003064046700021400019804BARCODE1                      NO                            T:\MEDICAL\NA\RTP\TEAM CENTER\TEMPLATES\GRAPHICS\blank-01.TIF                                                                                                                                                                                                   
Z2BTLC01000                   500000000003064046700021500019804VERSION                       NO                            T:\MEDICAL\NA\RTP\TEAM CENTER\TEMPLATES\GRAPHICS\blank-01.tif                                                                                                                                                                                                   
Z2BTLC01000                   500000000003064046700021600019804DISTRIBUTEDBY                 NO                            T:\MEDICAL\NA\RTP\TEAM CENTER\TEMPLATES\GRAPHICS\blank-01.tif                                                                                                                                                                                                   
Z2BTLC01000                   500000000003064046700021700019804MANUFACTUREDBY                NO                            T:\MEDICAL\NA\RTP\TEAM CENTER\TEMPLATES\GRAPHICS\blank-01.tif                                                                                                                                                                                                   
Z2BTLC01000                   500000000003064046700021800019804LOGO3                         NO                            T:\MEDICAL\NA\RTP\TEAM CENTER\TEMPLATES\GRAPHICS\blank-01.tif                                                                                                                                                                                                   
Z2BTLC01000                   500000000003064046700021900019804LOGO4                         NO                            T:\MEDICAL\NA\RTP\TEAM CENTER\TEMPLATES\GRAPHICS\blank-01.tif                                                                                                                                                                                                   
Z2BTLC01000                   500000000003064046700022000019804LOGO5                         NO                            T:\MEDICAL\NA\RTP\TEAM CENTER\TEMPLATES\GRAPHICS\blank-01.tif                                                                                                                                                                                                   
Z2BTLC01000                   500000000003064046700022100019804LTNUMBER                      IPN041682                     IPN041682                                                                                                                                                                                                                                                       
Z2BTLC01000                   500000000003064046700022200019804LATEXSTATEMENT                NO                            T:\MEDICAL\NA\RTP\TEAM CENTER\TEMPLATES\GRAPHICS\blank-01.tif                                                                                                                                                                                                   
Z2BTLC01000                   500000000003064046700022300019804TEMPLATENUMBER                T001414                       T001414                                                                                                                                                                                                                                                         
Z2BTLC01000                   500000000003064046700022400019804BARCODETEXT                   34026704580171                34026704580171                                                                                                                                                                                                                                                  
Z2BTLC01000                   500000000003064046700022500019804ADDRESS                       TFX4LINEADD3I                 T:\MEDICAL\NA\RTP\TEAM CENTER\TEMPLATES\GRAPHICS\TFX4LineAdd3i.tif                                                                                                                                                                                              
Z2BTLC01000                   500000000003064046700022600019804CE0120                        NO                            T:\MEDICAL\NA\RTP\TEAM CENTER\TEMPLATES\GRAPHICS\blank-01.tif                                                                                                                                                                                                   
Z2BTLC01000                   500000000003064046700022700019804GRAPHIC01                     Y                             T:\MEDICAL\NA\RTP\TEAM CENTER\TEMPLATES\GRAPHICS\ConsultIFU.tif                                                                                                                                                                                                 
Z2BTLC01000                   500000000003064046700022800019804COOSTATE                      COOASSMMEX                    T:\MEDICAL\NA\RTP\TEAM CENTER\TEMPLATES\GRAPHICS\COOAssmMex.tif                                                                                                                                                                                                 
Z2BTLC01000                   500000000003064046700022900019804ECREP                         N                             T:\MEDICAL\NA\RTP\TEAM CENTER\TEMPLATES\GRAPHICS\BLANK-01.TIF                                                                                                                                                                                                   
Z2BTLC01000                   500000000003064046700023000019804ECREPADDRESS                  NO                            T:\MEDICAL\NA\RTP\TEAM CENTER\TEMPLATES\GRAPHICS\blank-01.tif                                                                                                                                                                                                   
Z2BTLC01000                   500000000003064046700023100019804EXPDATE                       N                             T:\MEDICAL\NA\RTP\TEAM CENTER\TEMPLATES\GRAPHICS\BLANK-01.TIF                                                                                                                                                                                                   
Z2BTLC01000                   500000000003064046700023200019804LEVEL                         SALESUNIT                     Sales Unit                                                                                                                                                                                                                                                      
Z2BTLC01000                   500000000003064046700023300019804LOGO1                         HUDSONRCI                     T:\MEDICAL\NA\RTP\TEAM CENTER\TEMPLATES\GRAPHICS\HUDSONRCI.tif                                                                                                                                                                                                  
Z2BTLC01000                   500000000003064046700023400019804LOGO2                         NO                            T:\MEDICAL\NA\RTP\TEAM CENTER\TEMPLATES\GRAPHICS\blank-01.tif                                                                                                                                                                                                   
Z2BTLC01000                   500000000003064046700023500019804LOTGRAPHIC                    Y                             T:\MEDICAL\NA\RTP\TEAM CENTER\TEMPLATES\GRAPHICS\Lot.tif                                                                                                                                                                                                        
Z2BTLC01000                   500000000003064046700023600019804STERILESTA                    NO                            T:\MEDICAL\NA\RTP\TEAM CENTER\TEMPLATES\GRAPHICS\blank-01.tif                                                                                                                                                                                                   
Z2BTLC01000                   500000000003064046700023700019804SIZE                          D103                          5" X 3"                                                                                                                                                                                                                                                         
Z2BTLC01000                   500000000003064046700023800019804GRAPHIC02                     Y                             T:\MEDICAL\NA\RTP\TEAM CENTER\TEMPLATES\GRAPHICS\singleuse.tif                                                                                                                                                                                                  
Z2BTLC01000                   500000000003064046700023900019804SERIAL                        N                             T:\MEDICAL\NA\RTP\TEAM CENTER\TEMPLATES\GRAPHICS\BLANK-01.TIF                                                                                                                                                                                                   
Z2BTLC01000                   500000000003064046700024000019804RXONLY                        Y                             T:\MEDICAL\NA\RTP\TEAM CENTER\TEMPLATES\GRAPHICS\RX Only.tif                                                                                                                                                                                                    
Z2BTLC01000                   500000000003064046700024100019804REFNUMBER                     Y                             T:\MEDICAL\NA\RTP\TEAM CENTER\TEMPLATES\GRAPHICS\REF.tif                                                                                                                                                                                                        
Z2BTLC01000                   500000000003064046700024200019804PATENTSTA                     NO                            T:\MEDICAL\NA\RTP\TEAM CENTER\TEMPLATES\GRAPHICS\blank-01.tif                                                                                                                                                                                                   
Z2BTLC01000                   500000000003064046700024300019804GRAPHIC03                     Y                             T:\MEDICAL\NA\RTP\TEAM CENTER\TEMPLATES\GRAPHICS\Non-sterile.tif                                                                                                                                                                                                
Z2BTLC01000                   500000000003064046700024400019804MFGDATE                       Y                             T:\MEDICAL\NA\RTP\TEAM CENTER\TEMPLATES\GRAPHICS\DateofManufacture.tif                                                                                                                                                                                          
Z2BTLC01000                   500000000003064046700024500019804MANUFACTURER                  Y                             T:\MEDICAL\NA\RTP\TEAM CENTER\TEMPLATES\GRAPHICS\Manufacturer.tif                                                                                                                                                                                               
Z2BTMH01000                   5000000000030640467000246000000021174              
Z2BTLH01000                   500000000003064046700024700024603LBL021513         
Z2BTTX01000                   500000000003064046700024800024704GRUNE  ENMATERIAL  LBL021513                                                             Disposable Bite Stick##                                               * 
Z2BTTX01000                   500000000003064046700024900024704GRUNE  ENMATERIAL  LBL021513                                                             Bite Block/Tongue Depressor                                           / 
Z2BTLC01000                   500000000003064046700025000024704STERILITYTYPE                 NONSTERILE                    T:\MEDICAL\NA\RTP\TEAM CENTER\TEMPLATES\GRAPHICS\blank-01.tif                                                                                                                                                                                                   
Z2BTLC01000                   500000000003064046700025100024704TFXLOGO                       Y                             T:\MEDICAL\NA\RTP\TEAM CENTER\TEMPLATES\GRAPHICS\TeleflexMedical.tif                                                                                                                                                                                            
Z2BTLC01000                   500000000003064046700025200024704REVISION                      R01                           R01                                                                                                                                                                                                                                                             
Z2BTLC01000                   500000000003064046700025300024704QUANTITY                      50                            50                                                                                                                                                                                                                                                              
Z2BTLC01000                   500000000003064046700025400024704REF                           N                             T:\MEDICAL\NA\RTP\TEAM CENTER\TEMPLATES\GRAPHICS\BLANK-01.TIF                                                                                                                                                                                                   
Z2BTLC01000                   500000000003064046700025500024704CAUTIONSTATE                  NO                            T:\MEDICAL\NA\RTP\TEAM CENTER\TEMPLATES\GRAPHICS\blank-01.tif                                                                                                                                                                                                   
Z2BTLC01000                   500000000003064046700025600024704LABELGRAPH1                   NO                            T:\MEDICAL\NA\RTP\TEAM CENTER\TEMPLATES\GRAPHICS\blank-01.tif                                                                                                                                                                                                   
Z2BTLC01000                   500000000003064046700025700024704LABELGRAPH2                   NO                            T:\MEDICAL\NA\RTP\TEAM CENTER\TEMPLATES\GRAPHICS\blank-01.tif                                                                                                                                                                                                   
Z2BTLC01000                   500000000003064046700025800024704KEEPAWAYHEAT                  N                             T:\MEDICAL\NA\RTP\TEAM CENTER\TEMPLATES\GRAPHICS\BLANK-01.TIF                                                                                                                                                                                                   
Z2BTLC01000                   500000000003064046700025900024704PHTDEHP                       N                             T:\MEDICAL\NA\RTP\TEAM CENTER\TEMPLATES\GRAPHICS\BLANK-01.TIF                                                                                                                                                                                                   
Z2BTLC01000                   500000000003064046700026000024704SIZELOGO                      N                             No                                                                                                                                                                                                                                                              
Z2BTLC01000                   500000000003064046700026100024704HIGHLOW                       NO                            T:\MEDICAL\NA\RTP\TEAM CENTER\TEMPLATES\GRAPHICS\blank-01.tif                                                                                                                                                                                                   
Z2BTLC01000                   500000000003064046700026200024704GS1                           NO                            T:\MEDICAL\NA\RTP\TEAM CENTER\TEMPLATES\GRAPHICS\blank-01.tif                                                                                                                                                                                                   
Z2BTLC01000                   500000000003064046700026300024704BARCODE1                      NO                            T:\MEDICAL\NA\RTP\TEAM CENTER\TEMPLATES\GRAPHICS\blank-01.TIF                                                                                                                                                                                                   
Z2BTLC01000                   500000000003064046700026400024704VERSION                       NO                            T:\MEDICAL\NA\RTP\TEAM CENTER\TEMPLATES\GRAPHICS\blank-01.tif                                                                                                                                                                                                   
Z2BTLC01000                   500000000003064046700026500024704DISTRIBUTEDBY                 NO                            T:\MEDICAL\NA\RTP\TEAM CENTER\TEMPLATES\GRAPHICS\blank-01.tif                                                                                                                                                                                                   
Z2BTLC01000                   500000000003064046700026600024704MANUFACTUREDBY                NO                            T:\MEDICAL\NA\RTP\TEAM CENTER\TEMPLATES\GRAPHICS\blank-01.tif                                                                                                                                                                                                   
Z2BTLC01000                   500000000003064046700026700024704LOGO3                         NO                            T:\MEDICAL\NA\RTP\TEAM CENTER\TEMPLATES\GRAPHICS\blank-01.tif                                                                                                                                                                                                   
Z2BTLC01000                   500000000003064046700026800024704LOGO4                         NO                            T:\MEDICAL\NA\RTP\TEAM CENTER\TEMPLATES\GRAPHICS\blank-01.tif                                                                                                                                                                                                   
Z2BTLC01000                   500000000003064046700026900024704LOGO5                         NO                            T:\MEDICAL\NA\RTP\TEAM CENTER\TEMPLATES\GRAPHICS\blank-01.tif                                                                                                                                                                                                   
Z2BTLC01000                   500000000003064046700027000024704LTNUMBER                      IPN041777                     IPN041777                                                                                                                                                                                                                                                       
Z2BTLC01000                   500000000003064046700027100024704LATEXSTATEMENT                NOTMADELATEX                  T:\MEDICAL\NA\RTP\TEAM CENTER\TEMPLATES\GRAPHICS\NotMadeLatex.tif                                                                                                                                                                                               
Z2BTLC01000                   500000000003064046700027200024704TEMPLATENUMBER                T000017                       T000017                                                                                                                                                                                                                                                         
Z2BTLC01000                   500000000003064046700027300024704GRAPHIC01                     Y                             T:\MEDICAL\NA\RTP\TEAM CENTER\TEMPLATES\GRAPHICS\SinglePatienUse.tif                                                                                                                                                                                            
Z2BTLC01000                   500000000003064046700027400024704BARCODETEXT                   34026704580225                34026704580225                                                                                                                                                                                                                                                  
Z2BTLC01000                   500000000003064046700027500024704ADDRESS                       TFX4LINEADD3I                 T:\MEDICAL\NA\RTP\TEAM CENTER\TEMPLATES\GRAPHICS\TFX4LineAdd3i.tif                                                                                                                                                                                              
Z2BTLC01000                   500000000003064046700027600024704CE0120                        NO                            T:\MEDICAL\NA\RTP\TEAM CENTER\TEMPLATES\GRAPHICS\blank-01.tif                                                                                                                                                                                                   
