EDI_DC40  5000000000002541435702 3012  Z1BTDOC                                                     ZSC_BTEND                                        SAPMEP    LS  MEPCLNT500                                                                                           I041      US  BARTENDER                                                                                            20110617145728                                                                                                                Material_EN         
Z2BTMH01000                   5000000000002541435000001000000021148              
Z2BTLH01000                   500000000000254143500000200000103LBL005218         
Z2BTTX01000                   500000000000254143500000300000204GRUNE  ENMATERIAL  LBL005218                                                             Dual Channel Airway, ##                                               *
Z2BTTX01000                   500000000000254143500000400000204GRUNE  ENMATERIAL  LBL005218                                                             100 mm, LARGE ADULT                                                   /
Z2BTLC01000                   500000000000254143500000500000204TEMPLATENUMBER                T001414                       T001414                                                                                                                                                                                                                                                        
Z2BTLC01000                   500000000000254143500000600000204REVISION                      R01                           R01                                                                                                                                                                                                                                                            
Z2BTLC01000                   500000000000254143500000700000204SIZE                          5" X 3"                       5" X 3"                                                                                                                                                                                                                                                        
Z2BTLC01000                   500000000000254143500000800000204LEVEL                         Sales Unit                    Sales Unit                                                                                                                                                                                                                                                     
Z2BTLC01000                   500000000000254143500000900000204QUANTITY                      48                            48                                                                                                                                                                                                                                                             
Z2BTLC01000                   500000000000254143500001000000204BARCODETEXT                   34026704596844                34026704596844                                                                                                                                                                                                                                                 
Z2BTLC01000                   500000000000254143500001100000204LTNUMBER                      IPN041678                     IPN041678                                                                                                                                                                                                                                                      
Z2BTLC01000                   500000000000254143500001200000204GRAPHIC01                     Y                             T:\MEDICAL\NA\RTP\TEAM CENTER\TEMPLATES\GRAPHICS\ConsultIFU.tif                                                                                                                                                                                                
Z2BTLC01000                   500000000000254143500001300000204GRAPHIC02                     Y                             T:\MEDICAL\NA\RTP\TEAM CENTER\TEMPLATES\GRAPHICS\Non-sterile.tif                                                                                                                                                                                               
Z2BTLC01000                   500000000000254143500001400000204GRAPHIC03                     Y                             T:\MEDICAL\NA\RTP\TEAM CENTER\TEMPLATES\GRAPHICS\SINGLEUSE.tif                                                                                                                                                                                                 
Z2BTLC01000                   500000000000254143500001500000204LOTGRAPHIC                    Y                             T:\MEDICAL\NA\RTP\TEAM CENTER\TEMPLATES\GRAPHICS\Lot.tif                                                                                                                                                                                                       
Z2BTLC01000                   500000000000254143500001600000204MANUFACTURER                  Y                             T:\MEDICAL\NA\RTP\TEAM CENTER\TEMPLATES\GRAPHICS\Manufacturer.tif                                                                                                                                                                                              
Z2BTLC01000                   500000000000254143500001700000204MFGDATE                       Y                             T:\MEDICAL\NA\RTP\TEAM CENTER\TEMPLATES\GRAPHICS\DateofManufacture.tif                                                                                                                                                                                         
Z2BTLC01000                   500000000000254143500001800000204PHTDEHP                       N                             T:\MEDICAL\NA\RTP\TEAM CENTER\TEMPLATES\GRAPHICS\blank-01.tif                                                                                                                                                                                                  
Z2BTLC01000                   500000000000254143500001900000204REFNUMBER                     Y                             T:\MEDICAL\NA\RTP\TEAM CENTER\TEMPLATES\GRAPHICS\REF.tif                                                                                                                                                                                                       
Z2BTLC01000                   500000000000254143500002000000204RXONLY                        Y                             T:\MEDICAL\NA\RTP\TEAM CENTER\TEMPLATES\GRAPHICS\RX Only.tif                                                                                                                                                                                                   
Z2BTLC01000                   500000000000254143500002100000204TFXLOGO                       Y                             T:\MEDICAL\NA\RTP\TEAM CENTER\TEMPLATES\GRAPHICS\TeleflexMedical.tif                                                                                                                                                                                           
Z2BTLC01000                   500000000000254143500002200000204ADDRESS                       TFX4LINEADD3I                 T:\MEDICAL\NA\RTP\TEAM CENTER\TEMPLATES\GRAPHICS\TFX4LINEADD3I.tif                                                                                                                                                                                             
Z2BTLC01000                   500000000000254143500002300000204BARCODE1                      GS1LBL005218                  T:\MEDICAL\NA\RTP\TEAM CENTER\TEMPLATES\GRAPHICS\GS1LBL005218.tif                                                                                                                                                                                              
Z2BTLC01000                   500000000000254143500002400000204COOSTATE                      COOASSMMEX                    T:\MEDICAL\NA\RTP\TEAM CENTER\TEMPLATES\GRAPHICS\COOASSMMEX.tif                                                                                                                                                                                                
Z2BTLC01000                   500000000000254143500002500000204LABELGRAPH1                   NOTMADELATEX                  T:\MEDICAL\NA\RTP\TEAM CENTER\TEMPLATES\GRAPHICS\NOTMADELATEX.tif                                                                                                                                                                                              
Z2BTLC01000                   500000000000254143500002600000204LATEXSTATEMENT                NO                            T:\MEDICAL\NA\RTP\TEAM CENTER\TEMPLATES\GRAPHICS\blank-01.tif                                                                                                                                                                                                  
Z2BTLC01000                   500000000000254143500002700000204LOGO1                         HUDSONRCI                     T:\MEDICAL\NA\RTP\TEAM CENTER\TEMPLATES\GRAPHICS\HUDSONRCI.tif                                                                                                                                                                                                 
Z2BTLC01000                   500000000000254143500002800000204STERILITYTYPE                 NO                            T:\MEDICAL\NA\RTP\TEAM CENTER\TEMPLATES\GRAPHICS\blank-01.tif                                                                                                                                                                                                  
Z2BTMH01000                   5000000000002541435000029000028021149              
Z2BTLH01000                   500000000000254143500003000002903LBL005219         
Z2BTTX01000                   500000000000254143500003100003004GRUNE  ENMATERIAL  LBL005219                                                             Dual Channel Airway, ##                                               *
Z2BTTX01000                   500000000000254143500003200003004GRUNE  ENMATERIAL  LBL005219                                                             90 mm, MEDIUM ADULT                                                   /
Z2BTLC01000                   500000000000254143500003300003004TEMPLATENUMBER                T001414                       T001414                                                                                                                                                                                                                                                        
Z2BTLC01000                   500000000000254143500003400003004REVISION                      R01                           R01                                                                                                                                                                                                                                                            
Z2BTLC01000                   500000000000254143500003500003004SIZE                          5" X 3"                       5" X 3"                                                                                                                                                                                                                                                        
Z2BTLC01000                   500000000000254143500003600003004LEVEL                         Sales Unit                    Sales Unit                                                                                                                                                                                                                                                     
Z2BTLC01000                   500000000000254143500003700003004QUANTITY                      48                            48                                                                                                                                                                                                                                                             
Z2BTLC01000                   500000000000254143500003800003004BARCODETEXT                   34026704580140                34026704580140                                                                                                                                                                                                                                                 
Z2BTLC01000                   500000000000254143500003900003004LTNUMBER                      IPN041679                     IPN041679                                                                                                                                                                                                                                                      
Z2BTLC01000                   500000000000254143500004000003004GRAPHIC01                     Y                             T:\MEDICAL\NA\RTP\TEAM CENTER\TEMPLATES\GRAPHICS\ConsultIFU.tif                                                                                                                                                                                                
Z2BTLC01000                   500000000000254143500004100003004GRAPHIC02                     Y                             T:\MEDICAL\NA\RTP\TEAM CENTER\TEMPLATES\GRAPHICS\Non-sterile.tif                                                                                                                                                                                               
Z2BTLC01000                   500000000000254143500004200003004GRAPHIC03                     Y                             T:\MEDICAL\NA\RTP\TEAM CENTER\TEMPLATES\GRAPHICS\SINGLEUSE.tif                                                                                                                                                                                                 
Z2BTLC01000                   500000000000254143500004300003004LOTGRAPHIC                    Y                             T:\MEDICAL\NA\RTP\TEAM CENTER\TEMPLATES\GRAPHICS\Lot.tif                                                                                                                                                                                                       
Z2BTLC01000                   500000000000254143500004400003004MANUFACTURER                  Y                             T:\MEDICAL\NA\RTP\TEAM CENTER\TEMPLATES\GRAPHICS\Manufacturer.tif                                                                                                                                                                                              
Z2BTLC01000                   500000000000254143500004500003004MFGDATE                       Y                             T:\MEDICAL\NA\RTP\TEAM CENTER\TEMPLATES\GRAPHICS\DateofManufacture.tif                                                                                                                                                                                         
Z2BTLC01000                   500000000000254143500004600003004PHTDEHP                       N                             T:\MEDICAL\NA\RTP\TEAM CENTER\TEMPLATES\GRAPHICS\blank-01.tif                                                                                                                                                                                                  
Z2BTLC01000                   500000000000254143500004700003004REFNUMBER                     Y                             T:\MEDICAL\NA\RTP\TEAM CENTER\TEMPLATES\GRAPHICS\REF.tif                                                                                                                                                                                                       
Z2BTLC01000                   500000000000254143500004800003004RXONLY                        Y                             T:\MEDICAL\NA\RTP\TEAM CENTER\TEMPLATES\GRAPHICS\RX Only.tif                                                                                                                                                                                                   
Z2BTLC01000                   500000000000254143500004900003004TFXLOGO                       Y                             T:\MEDICAL\NA\RTP\TEAM CENTER\TEMPLATES\GRAPHICS\TeleflexMedical.tif                                                                                                                                                                                           
Z2BTLC01000                   500000000000254143500005000003004ADDRESS                       TFX4LINEADD3I                 T:\MEDICAL\NA\RTP\TEAM CENTER\TEMPLATES\GRAPHICS\TFX4LINEADD3I.tif                                                                                                                                                                                             
Z2BTLC01000                   500000000000254143500005100003004BARCODE1                      GS1LBL005219                  T:\MEDICAL\NA\RTP\TEAM CENTER\TEMPLATES\GRAPHICS\GS1LBL005219.tif                                                                                                                                                                                              
Z2BTLC01000                   500000000000254143500005200003004COOSTATE                      COOASSMMEX                    T:\MEDICAL\NA\RTP\TEAM CENTER\TEMPLATES\GRAPHICS\COOASSMMEX.tif                                                                                                                                                                                                
Z2BTLC01000                   500000000000254143500005300003004LABELGRAPH1                   NOTMADELATEX                  T:\MEDICAL\NA\RTP\TEAM CENTER\TEMPLATES\GRAPHICS\NOTMADELATEX.tif                                                                                                                                                                                              
Z2BTLC01000                   500000000000254143500005400003004LATEXSTATEMENT                NO                            T:\MEDICAL\NA\RTP\TEAM CENTER\TEMPLATES\GRAPHICS\blank-01.tif                                                                                                                                                                                                  
Z2BTLC01000                   500000000000254143500005500003004LOGO1                         HUDSONRCI                     T:\MEDICAL\NA\RTP\TEAM CENTER\TEMPLATES\GRAPHICS\HUDSONRCI.tif                                                                                                                                                                                                 
Z2BTLC01000                   500000000000254143500005600003004STERILITYTYPE                 NO                            T:\MEDICAL\NA\RTP\TEAM CENTER\TEMPLATES\GRAPHICS\blank-01.tif                                                                                                                                                                                                  
Z2BTMH01000                   5000000000002541435000057000056021150              
Z2BTLH01000                   500000000000254143500005800005703LBL005220         
Z2BTTX01000                   500000000000254143500005900005804GRUNE  ENMATERIAL  LBL005220                                                             Dual Channel Airway, ##                                               *
Z2BTTX01000                   500000000000254143500006000005804GRUNE  ENMATERIAL  LBL005220                                                             80 mm, SMALL ADULT                                                    /
Z2BTLC01000                   500000000000254143500006100005804TEMPLATENUMBER                T001414                       T001414                                                                                                                                                                                                                                                        
Z2BTLC01000                   500000000000254143500006200005804REVISION                      R01                           R01                                                                                                                                                                                                                                                            
Z2BTLC01000                   500000000000254143500006300005804SIZE                          5" X 3"                       5" X 3"                                                                                                                                                                                                                                                        
Z2BTLC01000                   500000000000254143500006400005804LEVEL                         Sales Unit                    Sales Unit                                                                                                                                                                                                                                                     
Z2BTLC01000                   500000000000254143500006500005804QUANTITY                      48                            48                                                                                                                                                                                                                                                             
Z2BTLC01000                   500000000000254143500006600005804BARCODETEXT                   34026704580157                34026704580157                                                                                                                                                                                                                                                 
Z2BTLC01000                   500000000000254143500006700005804LTNUMBER                      IPN041680                     IPN041680                                                                                                                                                                                                                                                      
Z2BTLC01000                   500000000000254143500006800005804GRAPHIC01                     Y                             T:\MEDICAL\NA\RTP\TEAM CENTER\TEMPLATES\GRAPHICS\ConsultIFU.tif                                                                                                                                                                                                
Z2BTLC01000                   500000000000254143500006900005804GRAPHIC02                     Y                             T:\MEDICAL\NA\RTP\TEAM CENTER\TEMPLATES\GRAPHICS\Non-sterile.tif                                                                                                                                                                                               
Z2BTLC01000                   500000000000254143500007000005804GRAPHIC03                     Y                             T:\MEDICAL\NA\RTP\TEAM CENTER\TEMPLATES\GRAPHICS\SINGLEUSE.tif                                                                                                                                                                                                 
Z2BTLC01000                   500000000000254143500007100005804LOTGRAPHIC                    Y                             T:\MEDICAL\NA\RTP\TEAM CENTER\TEMPLATES\GRAPHICS\Lot.tif                                                                                                                                                                                                       
Z2BTLC01000                   500000000000254143500007200005804MANUFACTURER                  Y                             T:\MEDICAL\NA\RTP\TEAM CENTER\TEMPLATES\GRAPHICS\Manufacturer.tif                                                                                                                                                                                              
Z2BTLC01000                   500000000000254143500007300005804MFGDATE                       Y                             T:\MEDICAL\NA\RTP\TEAM CENTER\TEMPLATES\GRAPHICS\DateofManufacture.tif                                                                                                                                                                                         
Z2BTLC01000                   500000000000254143500007400005804PHTDEHP                       N                             T:\MEDICAL\NA\RTP\TEAM CENTER\TEMPLATES\GRAPHICS\blank-01.tif                                                                                                                                                                                                  
Z2BTLC01000                   500000000000254143500007500005804REFNUMBER                     Y                             T:\MEDICAL\NA\RTP\TEAM CENTER\TEMPLATES\GRAPHICS\REF.tif                                                                                                                                                                                                       
Z2BTLC01000                   500000000000254143500007600005804RXONLY                        Y                             T:\MEDICAL\NA\RTP\TEAM CENTER\TEMPLATES\GRAPHICS\RX Only.tif                                                                                                                                                                                                   
Z2BTLC01000                   500000000000254143500007700005804TFXLOGO                       Y                             T:\MEDICAL\NA\RTP\TEAM CENTER\TEMPLATES\GRAPHICS\TeleflexMedical.tif                                                                                                                                                                                           
Z2BTLC01000                   500000000000254143500007800005804ADDRESS                       TFX4LINEADD3I                 T:\MEDICAL\NA\RTP\TEAM CENTER\TEMPLATES\GRAPHICS\TFX4LINEADD3I.tif                                                                                                                                                                                             
Z2BTLC01000                   500000000000254143500007900005804BARCODE1                      GS1LBL005220                  T:\MEDICAL\NA\RTP\TEAM CENTER\TEMPLATES\GRAPHICS\GS1LBL005220.tif                                                                                                                                                                                              
Z2BTLC01000                   500000000000254143500008000005804COOSTATE                      COOASSMMEX                    T:\MEDICAL\NA\RTP\TEAM CENTER\TEMPLATES\GRAPHICS\COOASSMMEX.tif                                                                                                                                                                                                
Z2BTLC01000                   500000000000254143500008100005804LABELGRAPH1                   NOTMADELATEX                  T:\MEDICAL\NA\RTP\TEAM CENTER\TEMPLATES\GRAPHICS\NOTMADELATEX.tif                                                                                                                                                                                              
Z2BTLC01000                   500000000000254143500008200005804LATEXSTATEMENT                NO                            T:\MEDICAL\NA\RTP\TEAM CENTER\TEMPLATES\GRAPHICS\blank-01.tif                                                                                                                                                                                                  
Z2BTLC01000                   500000000000254143500008300005804LOGO1                         HUDSONRCI                     T:\MEDICAL\NA\RTP\TEAM CENTER\TEMPLATES\GRAPHICS\HUDSONRCI.tif                                                                                                                                                                                                 
Z2BTLC01000                   500000000000254143500008400005804STERILITYTYPE                 NO                            T:\MEDICAL\NA\RTP\TEAM CENTER\TEMPLATES\GRAPHICS\blank-01.tif                                                                                                                                                                                                  
Z2BTMH01000                   5000000000002541435000085000084021151              
Z2BTLH01000                   500000000000254143500008600008503LBL005221         
Z2BTTX01000                   500000000000254143500008700008604GRUNE  ENMATERIAL  LBL005221                                                             Dual Channel Airway, ##                                               *
Z2BTTX01000                   500000000000254143500008800008604GRUNE  ENMATERIAL  LBL005221                                                             60 mm, CHILD                                                          /
Z2BTLC01000                   500000000000254143500008900008604TEMPLATENUMBER                T001414                       T001414                                                                                                                                                                                                                                                        
Z2BTLC01000                   500000000000254143500009000008604REVISION                      R01                           R01                                                                                                                                                                                                                                                            
Z2BTLC01000                   500000000000254143500009100008604SIZE                          5" X 3"                       5" X 3"                                                                                                                                                                                                                                                        
Z2BTLC01000                   500000000000254143500009200008604LEVEL                         Sales Unit                    Sales Unit                                                                                                                                                                                                                                                     
Z2BTLC01000                   500000000000254143500009300008604QUANTITY                      48                            48                                                                                                                                                                                                                                                             
Z2BTLC01000                   500000000000254143500009400008604BARCODETEXT                   34026704580164                34026704580164                                                                                                                                                                                                                                                 
Z2BTLC01000                   500000000000254143500009500008604LTNUMBER                      IPN041681                     IPN041681                                                                                                                                                                                                                                                      
Z2BTLC01000                   500000000000254143500009600008604GRAPHIC01                     Y                             T:\MEDICAL\NA\RTP\TEAM CENTER\TEMPLATES\GRAPHICS\ConsultIFU.tif                                                                                                                                                                                                
Z2BTLC01000                   500000000000254143500009700008604GRAPHIC02                     Y                             T:\MEDICAL\NA\RTP\TEAM CENTER\TEMPLATES\GRAPHICS\Non-sterile.tif                                                                                                                                                                                               
Z2BTLC01000                   500000000000254143500009800008604GRAPHIC03                     Y                             T:\MEDICAL\NA\RTP\TEAM CENTER\TEMPLATES\GRAPHICS\SINGLEUSE.tif                                                                                                                                                                                                 
Z2BTLC01000                   500000000000254143500009900008604LOTGRAPHIC                    Y                             T:\MEDICAL\NA\RTP\TEAM CENTER\TEMPLATES\GRAPHICS\Lot.tif                                                                                                                                                                                                       
Z2BTLC01000                   500000000000254143500010000008604MANUFACTURER                  Y                             T:\MEDICAL\NA\RTP\TEAM CENTER\TEMPLATES\GRAPHICS\Manufacturer.tif                                                                                                                                                                                              
Z2BTLC01000                   500000000000254143500010100008604MFGDATE                       Y                             T:\MEDICAL\NA\RTP\TEAM CENTER\TEMPLATES\GRAPHICS\DateofManufacture.tif                                                                                                                                                                                         
Z2BTLC01000                   500000000000254143500010200008604PHTDEHP                       N                             T:\MEDICAL\NA\RTP\TEAM CENTER\TEMPLATES\GRAPHICS\blank-01.tif                                                                                                                                                                                                  
Z2BTLC01000                   500000000000254143500010300008604REFNUMBER                     Y                             T:\MEDICAL\NA\RTP\TEAM CENTER\TEMPLATES\GRAPHICS\REF.tif                                                                                                                                                                                                       
Z2BTLC01000                   500000000000254143500010400008604RXONLY                        Y                             T:\MEDICAL\NA\RTP\TEAM CENTER\TEMPLATES\GRAPHICS\RX Only.tif                                                                                                                                                                                                   
Z2BTLC01000                   500000000000254143500010500008604TFXLOGO                       Y                             T:\MEDICAL\NA\RTP\TEAM CENTER\TEMPLATES\GRAPHICS\TeleflexMedical.tif                                                                                                                                                                                           
Z2BTLC01000                   500000000000254143500010600008604ADDRESS                       TFX4LINEADD3I                 T:\MEDICAL\NA\RTP\TEAM CENTER\TEMPLATES\GRAPHICS\TFX4LINEADD3I.tif                                                                                                                                                                                             
Z2BTLC01000                   500000000000254143500010700008604BARCODE1                      GS1LBL005221                  T:\MEDICAL\NA\RTP\TEAM CENTER\TEMPLATES\GRAPHICS\GS1LBL005221.tif                                                                                                                                                                                              
Z2BTLC01000                   500000000000254143500010800008604COOSTATE                      COOASSMMEX                    T:\MEDICAL\NA\RTP\TEAM CENTER\TEMPLATES\GRAPHICS\COOASSMMEX.tif                                                                                                                                                                                                
Z2BTLC01000                   500000000000254143500010900008604LABELGRAPH1                   NOTMADELATEX                  T:\MEDICAL\NA\RTP\TEAM CENTER\TEMPLATES\GRAPHICS\NOTMADELATEX.tif                                                                                                                                                                                              
Z2BTLC01000                   500000000000254143500011000008604LATEXSTATEMENT                NO                            T:\MEDICAL\NA\RTP\TEAM CENTER\TEMPLATES\GRAPHICS\blank-01.tif                                                                                                                                                                                                  
Z2BTLC01000                   500000000000254143500011100008604LOGO1                         HUDSONRCI                     T:\MEDICAL\NA\RTP\TEAM CENTER\TEMPLATES\GRAPHICS\HUDSONRCI.tif                                                                                                                                                                                                 
Z2BTLC01000                   500000000000254143500011200008604STERILITYTYPE                 NO                            T:\MEDICAL\NA\RTP\TEAM CENTER\TEMPLATES\GRAPHICS\blank-01.tif                                                                                                                                                                                                  
Z2BTMH01000                   5000000000002541435000113000112021152              
Z2BTLH01000                   500000000000254143500011400011303LBL005222         
Z2BTTX01000                   500000000000254143500011500011404GRUNE  ENMATERIAL  LBL005222                                                             Dual Channel Airway, ##                                               *
Z2BTTX01000                   500000000000254143500011600011404GRUNE  ENMATERIAL  LBL005222                                                             40 mm, INFANT                                                         /
Z2BTLC01000                   500000000000254143500011700011404TEMPLATENUMBER                T001414                       T001414                                                                                                                                                                                                                                                        
Z2BTLC01000                   500000000000254143500011800011404REVISION                      R01                           R01                                                                                                                                                                                                                                                            
Z2BTLC01000                   500000000000254143500011900011404SIZE                          5" X 3"                       5" X 3"                                                                                                                                                                                                                                                        
Z2BTLC01000                   500000000000254143500012000011404LEVEL                         Sales Unit                    Sales Unit                                                                                                                                                                                                                                                     
Z2BTLC01000                   500000000000254143500012100011404QUANTITY                      48                            48                                                                                                                                                                                                                                                             
Z2BTLC01000                   500000000000254143500012200011404BARCODETEXT                   34026704580171                34026704580171                                                                                                                                                                                                                                                 
Z2BTLC01000                   500000000000254143500012300011404LTNUMBER                      IPN041682                     IPN041682                                                                                                                                                                                                                                                      
Z2BTLC01000                   500000000000254143500012400011404GRAPHIC01                     Y                             T:\MEDICAL\NA\RTP\TEAM CENTER\TEMPLATES\GRAPHICS\ConsultIFU.tif                                                                                                                                                                                                
Z2BTLC01000                   500000000000254143500012500011404GRAPHIC02                     Y                             T:\MEDICAL\NA\RTP\TEAM CENTER\TEMPLATES\GRAPHICS\Non-sterile.tif                                                                                                                                                                                               
Z2BTLC01000                   500000000000254143500012600011404GRAPHIC03                     Y                             T:\MEDICAL\NA\RTP\TEAM CENTER\TEMPLATES\GRAPHICS\SINGLEUSE.tif                                                                                                                                                                                                 
Z2BTLC01000                   500000000000254143500012700011404LOTGRAPHIC                    Y                             T:\MEDICAL\NA\RTP\TEAM CENTER\TEMPLATES\GRAPHICS\Lot.tif                                                                                                                                                                                                       
Z2BTLC01000                   500000000000254143500012800011404MANUFACTURER                  Y                             T:\MEDICAL\NA\RTP\TEAM CENTER\TEMPLATES\GRAPHICS\Manufacturer.tif                                                                                                                                                                                              
Z2BTLC01000                   500000000000254143500012900011404MFGDATE                       Y                             T:\MEDICAL\NA\RTP\TEAM CENTER\TEMPLATES\GRAPHICS\DateofManufacture.tif                                                                                                                                                                                         
Z2BTLC01000                   500000000000254143500013000011404PHTDEHP                       N                             T:\MEDICAL\NA\RTP\TEAM CENTER\TEMPLATES\GRAPHICS\blank-01.tif                                                                                                                                                                                                  
Z2BTLC01000                   500000000000254143500013100011404REFNUMBER                     Y                             T:\MEDICAL\NA\RTP\TEAM CENTER\TEMPLATES\GRAPHICS\REF.tif                                                                                                                                                                                                       
Z2BTLC01000                   500000000000254143500013200011404RXONLY                        Y                             T:\MEDICAL\NA\RTP\TEAM CENTER\TEMPLATES\GRAPHICS\RX Only.tif                                                                                                                                                                                                   
Z2BTLC01000                   500000000000254143500013300011404TFXLOGO                       Y                             T:\MEDICAL\NA\RTP\TEAM CENTER\TEMPLATES\GRAPHICS\TeleflexMedical.tif                                                                                                                                                                                           
Z2BTLC01000                   500000000000254143500013400011404ADDRESS                       TFX4LINEADD3I                 T:\MEDICAL\NA\RTP\TEAM CENTER\TEMPLATES\GRAPHICS\TFX4LINEADD3I.tif                                                                                                                                                                                             
Z2BTLC01000                   500000000000254143500013500011404BARCODE1                      GS1LBL005222                  T:\MEDICAL\NA\RTP\TEAM CENTER\TEMPLATES\GRAPHICS\GS1LBL005222.tif                                                                                                                                                                                              
Z2BTLC01000                   500000000000254143500013600011404COOSTATE                      COOASSMMEX                    T:\MEDICAL\NA\RTP\TEAM CENTER\TEMPLATES\GRAPHICS\COOASSMMEX.tif                                                                                                                                                                                                
Z2BTLC01000                   500000000000254143500013700011404LABELGRAPH1                   NOTMADELATEX                  T:\MEDICAL\NA\RTP\TEAM CENTER\TEMPLATES\GRAPHICS\NOTMADELATEX.tif                                                                                                                                                                                              
Z2BTLC01000                   500000000000254143500013800011404LATEXSTATEMENT                NO                            T:\MEDICAL\NA\RTP\TEAM CENTER\TEMPLATES\GRAPHICS\blank-01.tif                                                                                                                                                                                                  
Z2BTLC01000                   500000000000254143500013900011404LOGO1                         HUDSONRCI                     T:\MEDICAL\NA\RTP\TEAM CENTER\TEMPLATES\GRAPHICS\HUDSONRCI.tif                                                                                                                                                                                                 
Z2BTLC01000                   500000000000254143500014000011404STERILITYTYPE                 NO                            T:\MEDICAL\NA\RTP\TEAM CENTER\TEMPLATES\GRAPHICS\blank-01.tif                                                                                                                                                                                                  
Z2BTMH01000                   500000000000254143500014100014002126463            
Z2BTLH01000                   500000000000254143500014200014103LBL008205         
Z2BTTX01000                   500000000000254143500014300014204GRUNE  ENMATERIAL  LBL008205                                                             Gas Sampling Line##                                                   *
Z2BTTX01000                   500000000000254143500014400014204GRUNE  ENMATERIAL  LBL008205                                                             (1) 8' (2.4 m) Co-Extruded Gas Sampling Line##                        /
Z2BTTX01000                   500000000000254143500014500014204GRUNE  ENMATERIAL  LBL008205                                                             (Male/Male Luer Connectors)                                           /
Z2BTLC01000                   500000000000254143500014600014204TEMPLATENUMBER                T001470                       T001470                                                                                                                                                                                                                                                        
Z2BTLC01000                   500000000000254143500014700014204REVISION                      R01                           R01                                                                                                                                                                                                                                                            
Z2BTLC01000                   500000000000254143500014800014204SIZE                          6.125 x 3.625                 6.125 x 3.625                                                                                                                                                                                                                                                  
Z2BTLC01000                   500000000000254143500014900014204LEVEL                         Sales Unit                    Sales Unit                                                                                                                                                                                                                                                     
Z2BTLC01000                   500000000000254143500015000014204QUANTITY                      50                            50                                                                                                                                                                                                                                                             
Z2BTLC01000                   500000000000254143500015100014204BARCODETEXT                   34026704580577                34026704580577                                                                                                                                                                                                                                                 
Z2BTLC01000                   500000000000254143500015200014204LTNUMBER                      IPN042372                     IPN042372                                                                                                                                                                                                                                                      
Z2BTLC01000                   500000000000254143500015300014204GRAPHIC01                     Y                             T:\MEDICAL\NA\RTP\TEAM CENTER\TEMPLATES\GRAPHICS\Caution.tif                                                                                                                                                                                                   
Z2BTLC01000                   500000000000254143500015400014204GRAPHIC02                     Y                             T:\MEDICAL\NA\RTP\TEAM CENTER\TEMPLATES\GRAPHICS\ConsultIFU.tif                                                                                                                                                                                                
Z2BTLC01000                   500000000000254143500015500014204GRAPHIC03                     Y                             T:\MEDICAL\NA\RTP\TEAM CENTER\TEMPLATES\GRAPHICS\SINGLEPATIENUSE.tif                                                                                                                                                                                           
Z2BTLC01000                   500000000000254143500015600014204LOTGRAPHIC                    Y                             T:\MEDICAL\NA\RTP\TEAM CENTER\TEMPLATES\GRAPHICS\Lot.tif                                                                                                                                                                                                       
Z2BTLC01000                   500000000000254143500015700014204MANUFACTURER                  Y                             T:\MEDICAL\NA\RTP\TEAM CENTER\TEMPLATES\GRAPHICS\Manufacturer.tif                                                                                                                                                                                              
Z2BTLC01000                   500000000000254143500015800014204MFGDATE                       Y                             T:\MEDICAL\NA\RTP\TEAM CENTER\TEMPLATES\GRAPHICS\DateofManufacture.tif                                                                                                                                                                                         
Z2BTLC01000                   500000000000254143500015900014204PHTDEHP                       Y                             T:\MEDICAL\NA\RTP\TEAM CENTER\TEMPLATES\GRAPHICS\PHT-DEHP.tif                                                                                                                                                                                                  
Z2BTLC01000                   500000000000254143500016000014204REFNUMBER                     Y                             T:\MEDICAL\NA\RTP\TEAM CENTER\TEMPLATES\GRAPHICS\REF.tif                                                                                                                                                                                                       
Z2BTLC01000                   500000000000254143500016100014204RXONLY                        Y                             T:\MEDICAL\NA\RTP\TEAM CENTER\TEMPLATES\GRAPHICS\RX Only.tif                                                                                                                                                                                                   
Z2BTLC01000                   500000000000254143500016200014204TFXLOGO                       Y                             T:\MEDICAL\NA\RTP\TEAM CENTER\TEMPLATES\GRAPHICS\TeleflexMedical.tif                                                                                                                                                                                           
Z2BTLC01000                   500000000000254143500016300014204ADDRESS                       TFX4LINEADD3I                 T:\MEDICAL\NA\RTP\TEAM CENTER\TEMPLATES\GRAPHICS\TFX4LINEADD3I.tif                                                                                                                                                                                             
Z2BTLC01000                   500000000000254143500016400014204BARCODE1                      NO                            T:\MEDICAL\NA\RTP\TEAM CENTER\TEMPLATES\GRAPHICS\blank-01.tif                                                                                                                                                                                                  
Z2BTLC01000                   500000000000254143500016500014204COOSTATE                      COOPRODUSPACKMEX              T:\MEDICAL\NA\RTP\TEAM CENTER\TEMPLATES\GRAPHICS\COOPRODUSPACKMEX.tif                                                                                                                                                                                          
Z2BTLC01000                   500000000000254143500016600014204LABELGRAPH1                   NO                            T:\MEDICAL\NA\RTP\TEAM CENTER\TEMPLATES\GRAPHICS\blank-01.tif                                                                                                                                                                                                  
Z2BTLC01000                   500000000000254143500016700014204LATEXSTATEMENT                NOTMADELATEX                  T:\MEDICAL\NA\RTP\TEAM CENTER\TEMPLATES\GRAPHICS\NOTMADELATEX.tif                                                                                                                                                                                              
Z2BTLC01000                   500000000000254143500016800014204LOGO1                         HUDSONRCI                     T:\MEDICAL\NA\RTP\TEAM CENTER\TEMPLATES\GRAPHICS\HUDSONRCI.tif                                                                                                                                                                                                 
Z2BTLC01000                   500000000000254143500016900014204STERILITYTYPE                 NONSTERILE                    T:\MEDICAL\NA\RTP\TEAM CENTER\TEMPLATES\GRAPHICS\NONSTERILE.tif                                                                                                                                                                                                
Z2BTMH01000                   5000000000002541435000170000169021174              
Z2BTLH01000                   500000000000254143500017100017003LBL021513         
Z2BTTX01000                   500000000000254143500017200017104GRUNE  ENMATERIAL  LBL021513                                                             Disposable Bite Stick##                                               *
Z2BTTX01000                   500000000000254143500017300017104GRUNE  ENMATERIAL  LBL021513                                                             Bite Block/Tongue Depressor                                           /
Z2BTLC01000                   500000000000254143500017400017104TEMPLATENUMBER                T000017                       T000017                                                                                                                                                                                                                                                        
Z2BTLC01000                   500000000000254143500017500017104REVISION                      R01                           R01                                                                                                                                                                                                                                                            
Z2BTLC01000                   500000000000254143500017600017104SIZE                          6.125 x 3.625                 6.125 x 3.625                                                                                                                                                                                                                                                  
Z2BTLC01000                   500000000000254143500017700017104LEVEL                         Sales Unit                    Sales Unit                                                                                                                                                                                                                                                     
Z2BTLC01000                   500000000000254143500017800017104QUANTITY                      50                            50                                                                                                                                                                                                                                                             
Z2BTLC01000                   500000000000254143500017900017104BARCODETEXT                   34026704580225                34026704580225                                                                                                                                                                                                                                                 
Z2BTLC01000                   500000000000254143500018000017104LTNUMBER                      IPN041777                     IPN041777                                                                                                                                                                                                                                                      
Z2BTLC01000                   500000000000254143500018100017104GRAPHIC01                     Y                             T:\MEDICAL\NA\RTP\TEAM CENTER\TEMPLATES\GRAPHICS\ConsultIFU.tif                                                                                                                                                                                                
Z2BTLC01000                   500000000000254143500018200017104GRAPHIC02                     Y                             T:\MEDICAL\NA\RTP\TEAM CENTER\TEMPLATES\GRAPHICS\SINGLEPATIENUSE.tif                                                                                                                                                                                           
Z2BTLC01000                   500000000000254143500018300017104LOTGRAPHIC                    Y                             T:\MEDICAL\NA\RTP\TEAM CENTER\TEMPLATES\GRAPHICS\Lot.tif                                                                                                                                                                                                       
Z2BTLC01000                   500000000000254143500018400017104MANUFACTURER                  Y                             T:\MEDICAL\NA\RTP\TEAM CENTER\TEMPLATES\GRAPHICS\Manufacturer.tif                                                                                                                                                                                              
Z2BTLC01000                   500000000000254143500018500017104MFGDATE                       Y                             T:\MEDICAL\NA\RTP\TEAM CENTER\TEMPLATES\GRAPHICS\DateofManufacture.tif                                                                                                                                                                                         
Z2BTLC01000                   500000000000254143500018600017104PHTDEHP                       N                             T:\MEDICAL\NA\RTP\TEAM CENTER\TEMPLATES\GRAPHICS\blank-01.tif                                                                                                                                                                                                  
Z2BTLC01000                   500000000000254143500018700017104REFNUMBER                     Y                             T:\MEDICAL\NA\RTP\TEAM CENTER\TEMPLATES\GRAPHICS\REF.tif                                                                                                                                                                                                       
Z2BTLC01000                   500000000000254143500018800017104RXONLY                        Y                             T:\MEDICAL\NA\RTP\TEAM CENTER\TEMPLATES\GRAPHICS\RX Only.tif                                                                                                                                                                                                   
Z2BTLC01000                   500000000000254143500018900017104TFXLOGO                       Y                             T:\MEDICAL\NA\RTP\TEAM CENTER\TEMPLATES\GRAPHICS\TeleflexMedical.tif                                                                                                                                                                                           
Z2BTLC01000                   500000000000254143500019000017104ADDRESS                       TFX4LINEADD3I                 T:\MEDICAL\NA\RTP\TEAM CENTER\TEMPLATES\GRAPHICS\TFX4LINEADD3I.tif                                                                                                                                                                                             
Z2BTLC01000                   500000000000254143500019100017104BARCODE1                      NO                            T:\MEDICAL\NA\RTP\TEAM CENTER\TEMPLATES\GRAPHICS\blank-01.tif                                                                                                                                                                                                  
Z2BTLC01000                   500000000000254143500019200017104COOSTATE                      COOMEXICO1                    T:\MEDICAL\NA\RTP\TEAM CENTER\TEMPLATES\GRAPHICS\COOMEXICO1.tif                                                                                                                                                                                                
Z2BTLC01000                   500000000000254143500019300017104LABELGRAPH1                   NO                            T:\MEDICAL\NA\RTP\TEAM CENTER\TEMPLATES\GRAPHICS\blank-01.tif                                                                                                                                                                                                  
Z2BTLC01000                   500000000000254143500019400017104LATEXSTATEMENT                NOTMADELATEX                  T:\MEDICAL\NA\RTP\TEAM CENTER\TEMPLATES\GRAPHICS\NOTMADELATEX.tif                                                                                                                                                                                              
Z2BTLC01000                   500000000000254143500019500017104LOGO1                         HUDSONRCI                     T:\MEDICAL\NA\RTP\TEAM CENTER\TEMPLATES\GRAPHICS\HUDSONRCI.tif                                                                                                                                                                                                 
Z2BTLC01000                   500000000000254143500019600017104STERILITYTYPE                 NONSTERILE                    T:\MEDICAL\NA\RTP\TEAM CENTER\TEMPLATES\GRAPHICS\NONSTERILE.tif                                                                                                                                                                                                
